{
  "contractName": "COLINERC721",
  "abi": [
    {
      "inputs": [],
      "stateMutability": "nonpayable",
      "type": "constructor"
    },
    {
      "anonymous": false,
      "inputs": [
        {
          "indexed": true,
          "internalType": "address",
          "name": "owner",
          "type": "address"
        },
        {
          "indexed": true,
          "internalType": "address",
          "name": "approved",
          "type": "address"
        },
        {
          "indexed": true,
          "internalType": "uint256",
          "name": "tokenId",
          "type": "uint256"
        }
      ],
      "name": "Approval",
      "type": "event"
    },
    {
      "anonymous": false,
      "inputs": [
        {
          "indexed": true,
          "internalType": "address",
          "name": "owner",
          "type": "address"
        },
        {
          "indexed": true,
          "internalType": "address",
          "name": "operator",
          "type": "address"
        },
        {
          "indexed": false,
          "internalType": "bool",
          "name": "approved",
          "type": "bool"
        }
      ],
      "name": "ApprovalForAll",
      "type": "event"
    },
    {
      "anonymous": false,
      "inputs": [
        {
          "indexed": true,
          "internalType": "address",
          "name": "previousOwner",
          "type": "address"
        },
        {
          "indexed": true,
          "internalType": "address",
          "name": "newOwner",
          "type": "address"
        }
      ],
      "name": "OwnershipTransferred",
      "type": "event"
    },
    {
      "anonymous": false,
      "inputs": [
        {
          "indexed": false,
          "internalType": "address",
          "name": "account",
          "type": "address"
        }
      ],
      "name": "Paused",
      "type": "event"
    },
    {
      "anonymous": false,
      "inputs": [
        {
          "indexed": true,
          "internalType": "address",
          "name": "from",
          "type": "address"
        },
        {
          "indexed": true,
          "internalType": "address",
          "name": "to",
          "type": "address"
        },
        {
          "indexed": true,
          "internalType": "uint256",
          "name": "tokenId",
          "type": "uint256"
        }
      ],
      "name": "Transfer",
      "type": "event"
    },
    {
      "anonymous": false,
      "inputs": [
        {
          "indexed": false,
          "internalType": "address",
          "name": "account",
          "type": "address"
        }
      ],
      "name": "Unpaused",
      "type": "event"
    },
    {
      "inputs": [
        {
          "internalType": "address",
          "name": "to",
          "type": "address"
        },
        {
          "internalType": "uint256",
          "name": "tokenId",
          "type": "uint256"
        }
      ],
      "name": "approve",
      "outputs": [],
      "stateMutability": "nonpayable",
      "type": "function"
    },
    {
      "inputs": [
        {
          "internalType": "address",
          "name": "owner",
          "type": "address"
        }
      ],
      "name": "balanceOf",
      "outputs": [
        {
          "internalType": "uint256",
          "name": "",
          "type": "uint256"
        }
      ],
      "stateMutability": "view",
      "type": "function"
    },
    {
      "inputs": [
        {
          "internalType": "uint256",
          "name": "tokenId",
          "type": "uint256"
        }
      ],
      "name": "burn",
      "outputs": [],
      "stateMutability": "nonpayable",
      "type": "function"
    },
    {
      "inputs": [
        {
          "internalType": "uint256",
          "name": "tokenId",
          "type": "uint256"
        }
      ],
      "name": "getApproved",
      "outputs": [
        {
          "internalType": "address",
          "name": "",
          "type": "address"
        }
      ],
      "stateMutability": "view",
      "type": "function"
    },
    {
      "inputs": [
        {
          "internalType": "address",
          "name": "owner",
          "type": "address"
        },
        {
          "internalType": "address",
          "name": "operator",
          "type": "address"
        }
      ],
      "name": "isApprovedForAll",
      "outputs": [
        {
          "internalType": "bool",
          "name": "",
          "type": "bool"
        }
      ],
      "stateMutability": "view",
      "type": "function"
    },
    {
      "inputs": [],
      "name": "name",
      "outputs": [
        {
          "internalType": "string",
          "name": "",
          "type": "string"
        }
      ],
      "stateMutability": "view",
      "type": "function"
    },
    {
      "inputs": [],
      "name": "owner",
      "outputs": [
        {
          "internalType": "address",
          "name": "",
          "type": "address"
        }
      ],
      "stateMutability": "view",
      "type": "function"
    },
    {
      "inputs": [
        {
          "internalType": "uint256",
          "name": "tokenId",
          "type": "uint256"
        }
      ],
      "name": "ownerOf",
      "outputs": [
        {
          "internalType": "address",
          "name": "",
          "type": "address"
        }
      ],
      "stateMutability": "view",
      "type": "function"
    },
    {
      "inputs": [],
      "name": "paused",
      "outputs": [
        {
          "internalType": "bool",
          "name": "",
          "type": "bool"
        }
      ],
      "stateMutability": "view",
      "type": "function"
    },
    {
      "inputs": [],
      "name": "renounceOwnership",
      "outputs": [],
      "stateMutability": "nonpayable",
      "type": "function"
    },
    {
      "inputs": [
        {
          "internalType": "address",
          "name": "from",
          "type": "address"
        },
        {
          "internalType": "address",
          "name": "to",
          "type": "address"
        },
        {
          "internalType": "uint256",
          "name": "tokenId",
          "type": "uint256"
        }
      ],
      "name": "safeTransferFrom",
      "outputs": [],
      "stateMutability": "nonpayable",
      "type": "function"
    },
    {
      "inputs": [
        {
          "internalType": "address",
          "name": "from",
          "type": "address"
        },
        {
          "internalType": "address",
          "name": "to",
          "type": "address"
        },
        {
          "internalType": "uint256",
          "name": "tokenId",
          "type": "uint256"
        },
        {
          "internalType": "bytes",
          "name": "_data",
          "type": "bytes"
        }
      ],
      "name": "safeTransferFrom",
      "outputs": [],
      "stateMutability": "nonpayable",
      "type": "function"
    },
    {
      "inputs": [
        {
          "internalType": "address",
          "name": "operator",
          "type": "address"
        },
        {
          "internalType": "bool",
          "name": "approved",
          "type": "bool"
        }
      ],
      "name": "setApprovalForAll",
      "outputs": [],
      "stateMutability": "nonpayable",
      "type": "function"
    },
    {
      "inputs": [],
      "name": "symbol",
      "outputs": [
        {
          "internalType": "string",
          "name": "",
          "type": "string"
        }
      ],
      "stateMutability": "view",
      "type": "function"
    },
    {
      "inputs": [
        {
          "internalType": "uint256",
          "name": "index",
          "type": "uint256"
        }
      ],
      "name": "tokenByIndex",
      "outputs": [
        {
          "internalType": "uint256",
          "name": "",
          "type": "uint256"
        }
      ],
      "stateMutability": "view",
      "type": "function"
    },
    {
      "inputs": [
        {
          "internalType": "address",
          "name": "owner",
          "type": "address"
        },
        {
          "internalType": "uint256",
          "name": "index",
          "type": "uint256"
        }
      ],
      "name": "tokenOfOwnerByIndex",
      "outputs": [
        {
          "internalType": "uint256",
          "name": "",
          "type": "uint256"
        }
      ],
      "stateMutability": "view",
      "type": "function"
    },
    {
      "inputs": [
        {
          "internalType": "uint256",
          "name": "tokenId",
          "type": "uint256"
        }
      ],
      "name": "tokenURI",
      "outputs": [
        {
          "internalType": "string",
          "name": "",
          "type": "string"
        }
      ],
      "stateMutability": "view",
      "type": "function"
    },
    {
      "inputs": [],
      "name": "totalSupply",
      "outputs": [
        {
          "internalType": "uint256",
          "name": "",
          "type": "uint256"
        }
      ],
      "stateMutability": "view",
      "type": "function"
    },
    {
      "inputs": [
        {
          "internalType": "address",
          "name": "from",
          "type": "address"
        },
        {
          "internalType": "address",
          "name": "to",
          "type": "address"
        },
        {
          "internalType": "uint256",
          "name": "tokenId",
          "type": "uint256"
        }
      ],
      "name": "transferFrom",
      "outputs": [],
      "stateMutability": "nonpayable",
      "type": "function"
    },
    {
      "inputs": [
        {
          "internalType": "address",
          "name": "newOwner",
          "type": "address"
        }
      ],
      "name": "transferOwnership",
      "outputs": [],
      "stateMutability": "nonpayable",
      "type": "function"
    },
    {
      "inputs": [],
      "name": "pause",
      "outputs": [],
      "stateMutability": "nonpayable",
      "type": "function"
    },
    {
      "inputs": [],
      "name": "unpause",
      "outputs": [],
      "stateMutability": "nonpayable",
      "type": "function"
    },
    {
      "inputs": [
        {
          "internalType": "address",
          "name": "to",
          "type": "address"
        }
      ],
      "name": "safeMint",
      "outputs": [],
      "stateMutability": "nonpayable",
      "type": "function"
    },
    {
      "inputs": [
        {
          "internalType": "bytes4",
          "name": "interfaceId",
          "type": "bytes4"
        }
      ],
      "name": "supportsInterface",
      "outputs": [
        {
          "internalType": "bool",
          "name": "",
          "type": "bool"
        }
      ],
      "stateMutability": "view",
      "type": "function"
    },
    {
      "inputs": [],
      "name": "getHello",
      "outputs": [
        {
          "internalType": "string",
          "name": "",
          "type": "string"
        }
      ],
      "stateMutability": "view",
      "type": "function"
    }
  ],
  "bytecode": "0x60806040526040518060400160405280600581526020017f48656c6c6f000000000000000000000000000000000000000000000000000000815250600c9080519060200190620000519291906200020f565b503480156200005f57600080fd5b506040518060400160405280600581526020017f434f4c494e0000000000000000000000000000000000000000000000000000008152506040518060400160405280600381526020017f434f4c00000000000000000000000000000000000000000000000000000000008152508160009080519060200190620000e49291906200020f565b508060019080519060200190620000fd9291906200020f565b5050506000600a60006101000a81548160ff0219169083151502179055506200013b6200012f6200014160201b60201c565b6200014960201b60201c565b62000324565b600033905090565b6000600a60019054906101000a900473ffffffffffffffffffffffffffffffffffffffff16905081600a60016101000a81548173ffffffffffffffffffffffffffffffffffffffff021916908373ffffffffffffffffffffffffffffffffffffffff1602179055508173ffffffffffffffffffffffffffffffffffffffff168173ffffffffffffffffffffffffffffffffffffffff167f8be0079c531659141344cd1fd0a4f28419497f9722a3daafe3b4186f6b6457e060405160405180910390a35050565b8280546200021d90620002ee565b90600052602060002090601f0160209004810192826200024157600085556200028d565b82601f106200025c57805160ff19168380011785556200028d565b828001600101855582156200028d579182015b828111156200028c5782518255916020019190600101906200026f565b5b5090506200029c9190620002a0565b5090565b5b80821115620002bb576000816000905550600101620002a1565b5090565b7f4e487b7100000000000000000000000000000000000000000000000000000000600052602260045260246000fd5b600060028204905060018216806200030757607f821691505b602082108114156200031e576200031d620002bf565b5b50919050565b6138d180620003346000396000f3fe608060405234801561001057600080fd5b50600436106101735760003560e01c80635c975abb116100de5780638da9b77211610097578063b88d4fde11610071578063b88d4fde14610412578063c87b56dd1461042e578063e985e9c51461045e578063f2fde38b1461048e57610173565b80638da9b772146103ba57806395d89b41146103d8578063a22cb465146103f657610173565b80635c975abb1461030a5780636352211e1461032857806370a0823114610358578063715018a6146103885780638456cb59146103925780638da5cb5b1461039c57610173565b80632f745c59116101305780632f745c591461024c5780633f4ba83a1461027c57806340d097c31461028657806342842e0e146102a257806342966c68146102be5780634f6ccce7146102da57610173565b806301ffc9a71461017857806306fdde03146101a8578063081812fc146101c6578063095ea7b3146101f657806318160ddd1461021257806323b872dd14610230575b600080fd5b610192600480360381019061018d9190612499565b6104aa565b60405161019f91906124e1565b60405180910390f35b6101b06104bc565b6040516101bd9190612595565b60405180910390f35b6101e060048036038101906101db91906125ed565b61054e565b6040516101ed919061265b565b60405180910390f35b610210600480360381019061020b91906126a2565b6105d3565b005b61021a6106eb565b60405161022791906126f1565b60405180910390f35b61024a6004803603810190610245919061270c565b6106f8565b005b610266600480360381019061026191906126a2565b610758565b60405161027391906126f1565b60405180910390f35b6102846107fd565b005b6102a0600480360381019061029b919061275f565b610807565b005b6102bc60048036038101906102b7919061270c565b61082d565b005b6102d860048036038101906102d391906125ed565b61084d565b005b6102f460048036038101906102ef91906125ed565b6108a9565b60405161030191906126f1565b60405180910390f35b61031261091a565b60405161031f91906124e1565b60405180910390f35b610342600480360381019061033d91906125ed565b610931565b60405161034f919061265b565b60405180910390f35b610372600480360381019061036d919061275f565b6109e3565b60405161037f91906126f1565b60405180910390f35b610390610a9b565b005b61039a610b23565b005b6103a4610b2d565b6040516103b1919061265b565b60405180910390f35b6103c2610b57565b6040516103cf9190612595565b60405180910390f35b6103e0610be9565b6040516103ed9190612595565b60405180910390f35b610410600480360381019061040b91906127b8565b610c7b565b005b61042c6004803603810190610427919061292d565b610c91565b005b610448600480360381019061044391906125ed565b610cf3565b6040516104559190612595565b60405180910390f35b610478600480360381019061047391906129b0565b610d9a565b60405161048591906124e1565b60405180910390f35b6104a860048036038101906104a3919061275f565b610e2e565b005b60006104b582610f26565b9050919050565b6060600080546104cb90612a1f565b80601f01602080910402602001604051908101604052809291908181526020018280546104f790612a1f565b80156105445780601f1061051957610100808354040283529160200191610544565b820191906000526020600020905b81548152906001019060200180831161052757829003601f168201915b5050505050905090565b600061055982610fa0565b610598576040517f08c379a000000000000000000000000000000000000000000000000000000000815260040161058f90612ac3565b60405180910390fd5b6004600083815260200190815260200160002060009054906101000a900473ffffffffffffffffffffffffffffffffffffffff169050919050565b60006105de82610931565b90508073ffffffffffffffffffffffffffffffffffffffff168373ffffffffffffffffffffffffffffffffffffffff16141561064f576040517f08c379a000000000000000000000000000000000000000000000000000000000815260040161064690612b55565b60405180910390fd5b8073ffffffffffffffffffffffffffffffffffffffff1661066e61100c565b73ffffffffffffffffffffffffffffffffffffffff16148061069d575061069c8161069761100c565b610d9a565b5b6106dc576040517f08c379a00000000000000000000000000000000000000000000000000000000081526004016106d390612be7565b60405180910390fd5b6106e68383611014565b505050565b6000600880549050905090565b61070961070361100c565b826110cd565b610748576040517f08c379a000000000000000000000000000000000000000000000000000000000815260040161073f90612c79565b60405180910390fd5b6107538383836111ab565b505050565b6000610763836109e3565b82106107a4576040517f08c379a000000000000000000000000000000000000000000000000000000000815260040161079b90612d0b565b60405180910390fd5b600660008473ffffffffffffffffffffffffffffffffffffffff1673ffffffffffffffffffffffffffffffffffffffff168152602001908152602001600020600083815260200190815260200160002054905092915050565b610805611407565b565b6000610813600b6114a9565b905061081f600b6114b7565b61082982826114cd565b5050565b61084883838360405180602001604052806000815250610c91565b505050565b61085e61085861100c565b826110cd565b61089d576040517f08c379a000000000000000000000000000000000000000000000000000000000815260040161089490612d9d565b60405180910390fd5b6108a6816114eb565b50565b60006108b36106eb565b82106108f4576040517f08c379a00000000000000000000000000000000000000000000000000000000081526004016108eb90612e2f565b60405180910390fd5b6008828154811061090857610907612e4f565b5b90600052602060002001549050919050565b6000600a60009054906101000a900460ff16905090565b6000806002600084815260200190815260200160002060009054906101000a900473ffffffffffffffffffffffffffffffffffffffff169050600073ffffffffffffffffffffffffffffffffffffffff168173ffffffffffffffffffffffffffffffffffffffff1614156109da576040517f08c379a00000000000000000000000000000000000000000000000000000000081526004016109d190612ef0565b60405180910390fd5b80915050919050565b60008073ffffffffffffffffffffffffffffffffffffffff168273ffffffffffffffffffffffffffffffffffffffff161415610a54576040517f08c379a0000000000000000000000000000000000000000000000000000000008152600401610a4b90612f82565b60405180910390fd5b600360008373ffffffffffffffffffffffffffffffffffffffff1673ffffffffffffffffffffffffffffffffffffffff168152602001908152602001600020549050919050565b610aa361100c565b73ffffffffffffffffffffffffffffffffffffffff16610ac1610b2d565b73ffffffffffffffffffffffffffffffffffffffff1614610b17576040517f08c379a0000000000000000000000000000000000000000000000000000000008152600401610b0e90612fee565b60405180910390fd5b610b2160006115fc565b565b610b2b6116c2565b565b6000600a60019054906101000a900473ffffffffffffffffffffffffffffffffffffffff16905090565b6060600c8054610b6690612a1f565b80601f0160208091040260200160405190810160405280929190818152602001828054610b9290612a1f565b8015610bdf5780601f10610bb457610100808354040283529160200191610bdf565b820191906000526020600020905b815481529060010190602001808311610bc257829003601f168201915b5050505050905090565b606060018054610bf890612a1f565b80601f0160208091040260200160405190810160405280929190818152602001828054610c2490612a1f565b8015610c715780601f10610c4657610100808354040283529160200191610c71565b820191906000526020600020905b815481529060010190602001808311610c5457829003601f168201915b5050505050905090565b610c8d610c8661100c565b8383611765565b5050565b610ca2610c9c61100c565b836110cd565b610ce1576040517f08c379a0000000000000000000000000000000000000000000000000000000008152600401610cd890612c79565b60405180910390fd5b610ced848484846118d2565b50505050565b6060610cfe82610fa0565b610d3d576040517f08c379a0000000000000000000000000000000000000000000000000000000008152600401610d3490613080565b60405180910390fd5b6000610d4761192e565b90506000815111610d675760405180602001604052806000815250610d92565b80610d7184611945565b604051602001610d829291906130dc565b6040516020818303038152906040525b915050919050565b6000600560008473ffffffffffffffffffffffffffffffffffffffff1673ffffffffffffffffffffffffffffffffffffffff16815260200190815260200160002060008373ffffffffffffffffffffffffffffffffffffffff1673ffffffffffffffffffffffffffffffffffffffff16815260200190815260200160002060009054906101000a900460ff16905092915050565b610e3661100c565b73ffffffffffffffffffffffffffffffffffffffff16610e54610b2d565b73ffffffffffffffffffffffffffffffffffffffff1614610eaa576040517f08c379a0000000000000000000000000000000000000000000000000000000008152600401610ea190612fee565b60405180910390fd5b600073ffffffffffffffffffffffffffffffffffffffff168173ffffffffffffffffffffffffffffffffffffffff161415610f1a576040517f08c379a0000000000000000000000000000000000000000000000000000000008152600401610f1190613172565b60405180910390fd5b610f23816115fc565b50565b60007f780e9d63000000000000000000000000000000000000000000000000000000007bffffffffffffffffffffffffffffffffffffffffffffffffffffffff1916827bffffffffffffffffffffffffffffffffffffffffffffffffffffffff19161480610f995750610f9882611aa6565b5b9050919050565b60008073ffffffffffffffffffffffffffffffffffffffff166002600084815260200190815260200160002060009054906101000a900473ffffffffffffffffffffffffffffffffffffffff1673ffffffffffffffffffffffffffffffffffffffff1614159050919050565b600033905090565b816004600083815260200190815260200160002060006101000a81548173ffffffffffffffffffffffffffffffffffffffff021916908373ffffffffffffffffffffffffffffffffffffffff160217905550808273ffffffffffffffffffffffffffffffffffffffff1661108783610931565b73ffffffffffffffffffffffffffffffffffffffff167f8c5be1e5ebec7d5bd14f71427d1e84f3dd0314c0f7b2291e5b200ac8c7c3b92560405160405180910390a45050565b60006110d882610fa0565b611117576040517f08c379a000000000000000000000000000000000000000000000000000000000815260040161110e90613204565b60405180910390fd5b600061112283610931565b90508073ffffffffffffffffffffffffffffffffffffffff168473ffffffffffffffffffffffffffffffffffffffff16148061119157508373ffffffffffffffffffffffffffffffffffffffff166111798461054e565b73ffffffffffffffffffffffffffffffffffffffff16145b806111a257506111a18185610d9a565b5b91505092915050565b8273ffffffffffffffffffffffffffffffffffffffff166111cb82610931565b73ffffffffffffffffffffffffffffffffffffffff1614611221576040517f08c379a000000000000000000000000000000000000000000000000000000000815260040161121890613296565b60405180910390fd5b600073ffffffffffffffffffffffffffffffffffffffff168273ffffffffffffffffffffffffffffffffffffffff161415611291576040517f08c379a000000000000000000000000000000000000000000000000000000000815260040161128890613328565b60405180910390fd5b61129c838383611b88565b6112a7600082611014565b6001600360008573ffffffffffffffffffffffffffffffffffffffff1673ffffffffffffffffffffffffffffffffffffffff16815260200190815260200160002060008282546112f79190613377565b925050819055506001600360008473ffffffffffffffffffffffffffffffffffffffff1673ffffffffffffffffffffffffffffffffffffffff168152602001908152602001600020600082825461134e91906133ab565b92505081905550816002600083815260200190815260200160002060006101000a81548173ffffffffffffffffffffffffffffffffffffffff021916908373ffffffffffffffffffffffffffffffffffffffff160217905550808273ffffffffffffffffffffffffffffffffffffffff168473ffffffffffffffffffffffffffffffffffffffff167fddf252ad1be2c89b69c2b068fc378daa952ba7f163c4a11628f55a4df523b3ef60405160405180910390a4505050565b61140f61091a565b61144e576040517f08c379a00000000000000000000000000000000000000000000000000000000081526004016114459061344d565b60405180910390fd5b6000600a60006101000a81548160ff0219169083151502179055507f5db9ee0a495bf2e6ff9c91a7834c1ba4fdd244a5e8aa4e537bd38aeae4b073aa61149261100c565b60405161149f919061265b565b60405180910390a1565b600081600001549050919050565b6001816000016000828254019250508190555050565b6114e7828260405180602001604052806000815250611be0565b5050565b60006114f682610931565b905061150481600084611b88565b61150f600083611014565b6001600360008373ffffffffffffffffffffffffffffffffffffffff1673ffffffffffffffffffffffffffffffffffffffff168152602001908152602001600020600082825461155f9190613377565b925050819055506002600083815260200190815260200160002060006101000a81549073ffffffffffffffffffffffffffffffffffffffff021916905581600073ffffffffffffffffffffffffffffffffffffffff168273ffffffffffffffffffffffffffffffffffffffff167fddf252ad1be2c89b69c2b068fc378daa952ba7f163c4a11628f55a4df523b3ef60405160405180910390a45050565b6000600a60019054906101000a900473ffffffffffffffffffffffffffffffffffffffff16905081600a60016101000a81548173ffffffffffffffffffffffffffffffffffffffff021916908373ffffffffffffffffffffffffffffffffffffffff1602179055508173ffffffffffffffffffffffffffffffffffffffff168173ffffffffffffffffffffffffffffffffffffffff167f8be0079c531659141344cd1fd0a4f28419497f9722a3daafe3b4186f6b6457e060405160405180910390a35050565b6116ca61091a565b1561170a576040517f08c379a0000000000000000000000000000000000000000000000000000000008152600401611701906134b9565b60405180910390fd5b6001600a60006101000a81548160ff0219169083151502179055507f62e78cea01bee320cd4e420270b5ea74000d11b0c9f74754ebdbfc544b05a25861174e61100c565b60405161175b919061265b565b60405180910390a1565b8173ffffffffffffffffffffffffffffffffffffffff168373ffffffffffffffffffffffffffffffffffffffff1614156117d4576040517f08c379a00000000000000000000000000000000000000000000000000000000081526004016117cb90613525565b60405180910390fd5b80600560008573ffffffffffffffffffffffffffffffffffffffff1673ffffffffffffffffffffffffffffffffffffffff16815260200190815260200160002060008473ffffffffffffffffffffffffffffffffffffffff1673ffffffffffffffffffffffffffffffffffffffff16815260200190815260200160002060006101000a81548160ff0219169083151502179055508173ffffffffffffffffffffffffffffffffffffffff168373ffffffffffffffffffffffffffffffffffffffff167f17307eab39ab6107e8899845ad3d59bd9653f200f220920489ca2b5937696c31836040516118c591906124e1565b60405180910390a3505050565b6118dd8484846111ab565b6118e984848484611c3b565b611928576040517f08c379a000000000000000000000000000000000000000000000000000000000815260040161191f906135b7565b60405180910390fd5b50505050565b606060405180602001604052806000815250905090565b6060600082141561198d576040518060400160405280600181526020017f30000000000000000000000000000000000000000000000000000000000000008152509050611aa1565b600082905060005b600082146119bf5780806119a8906135d7565b915050600a826119b8919061364f565b9150611995565b60008167ffffffffffffffff8111156119db576119da612802565b5b6040519080825280601f01601f191660200182016040528015611a0d5781602001600182028036833780820191505090505b5090505b60008514611a9a57600182611a269190613377565b9150600a85611a359190613680565b6030611a4191906133ab565b60f81b818381518110611a5757611a56612e4f565b5b60200101907effffffffffffffffffffffffffffffffffffffffffffffffffffffffffffff1916908160001a905350600a85611a93919061364f565b9450611a11565b8093505050505b919050565b60007f80ac58cd000000000000000000000000000000000000000000000000000000007bffffffffffffffffffffffffffffffffffffffffffffffffffffffff1916827bffffffffffffffffffffffffffffffffffffffffffffffffffffffff19161480611b7157507f5b5e139f000000000000000000000000000000000000000000000000000000007bffffffffffffffffffffffffffffffffffffffffffffffffffffffff1916827bffffffffffffffffffffffffffffffffffffffffffffffffffffffff1916145b80611b815750611b8082611dc3565b5b9050919050565b611b9061091a565b15611bd0576040517f08c379a0000000000000000000000000000000000000000000000000000000008152600401611bc7906134b9565b60405180910390fd5b611bdb838383611e2d565b505050565b611bea8383611f41565b611bf76000848484611c3b565b611c36576040517f08c379a0000000000000000000000000000000000000000000000000000000008152600401611c2d906135b7565b60405180910390fd5b505050565b6000611c5c8473ffffffffffffffffffffffffffffffffffffffff1661210f565b15611db6578373ffffffffffffffffffffffffffffffffffffffff1663150b7a02611c8561100c565b8786866040518563ffffffff1660e01b8152600401611ca79493929190613706565b6020604051808303816000875af1925050508015611ce357506040513d601f19601f82011682018060405250810190611ce09190613767565b60015b611d66573d8060008114611d13576040519150601f19603f3d011682016040523d82523d6000602084013e611d18565b606091505b50600081511415611d5e576040517f08c379a0000000000000000000000000000000000000000000000000000000008152600401611d55906135b7565b60405180910390fd5b805181602001fd5b63150b7a0260e01b7bffffffffffffffffffffffffffffffffffffffffffffffffffffffff1916817bffffffffffffffffffffffffffffffffffffffffffffffffffffffff191614915050611dbb565b600190505b949350505050565b60007f01ffc9a7000000000000000000000000000000000000000000000000000000007bffffffffffffffffffffffffffffffffffffffffffffffffffffffff1916827bffffffffffffffffffffffffffffffffffffffffffffffffffffffff1916149050919050565b611e38838383612122565b600073ffffffffffffffffffffffffffffffffffffffff168373ffffffffffffffffffffffffffffffffffffffff161415611e7b57611e7681612127565b611eba565b8173ffffffffffffffffffffffffffffffffffffffff168373ffffffffffffffffffffffffffffffffffffffff1614611eb957611eb88382612170565b5b5b600073ffffffffffffffffffffffffffffffffffffffff168273ffffffffffffffffffffffffffffffffffffffff161415611efd57611ef8816122dd565b611f3c565b8273ffffffffffffffffffffffffffffffffffffffff168273ffffffffffffffffffffffffffffffffffffffff1614611f3b57611f3a82826123ae565b5b5b505050565b600073ffffffffffffffffffffffffffffffffffffffff168273ffffffffffffffffffffffffffffffffffffffff161415611fb1576040517f08c379a0000000000000000000000000000000000000000000000000000000008152600401611fa8906137e0565b60405180910390fd5b611fba81610fa0565b15611ffa576040517f08c379a0000000000000000000000000000000000000000000000000000000008152600401611ff19061384c565b60405180910390fd5b61200660008383611b88565b6001600360008473ffffffffffffffffffffffffffffffffffffffff1673ffffffffffffffffffffffffffffffffffffffff168152602001908152602001600020600082825461205691906133ab565b92505081905550816002600083815260200190815260200160002060006101000a81548173ffffffffffffffffffffffffffffffffffffffff021916908373ffffffffffffffffffffffffffffffffffffffff160217905550808273ffffffffffffffffffffffffffffffffffffffff16600073ffffffffffffffffffffffffffffffffffffffff167fddf252ad1be2c89b69c2b068fc378daa952ba7f163c4a11628f55a4df523b3ef60405160405180910390a45050565b600080823b905060008111915050919050565b505050565b6008805490506009600083815260200190815260200160002081905550600881908060018154018082558091505060019003906000526020600020016000909190919091505550565b6000600161217d846109e3565b6121879190613377565b905060006007600084815260200190815260200160002054905081811461226c576000600660008673ffffffffffffffffffffffffffffffffffffffff1673ffffffffffffffffffffffffffffffffffffffff168152602001908152602001600020600084815260200190815260200160002054905080600660008773ffffffffffffffffffffffffffffffffffffffff1673ffffffffffffffffffffffffffffffffffffffff168152602001908152602001600020600084815260200190815260200160002081905550816007600083815260200190815260200160002081905550505b6007600084815260200190815260200160002060009055600660008573ffffffffffffffffffffffffffffffffffffffff1673ffffffffffffffffffffffffffffffffffffffff16815260200190815260200160002060008381526020019081526020016000206000905550505050565b600060016008805490506122f19190613377565b905060006009600084815260200190815260200160002054905060006008838154811061232157612320612e4f565b5b90600052602060002001549050806008838154811061234357612342612e4f565b5b9060005260206000200181905550816009600083815260200190815260200160002081905550600960008581526020019081526020016000206000905560088054806123925761239161386c565b5b6001900381819060005260206000200160009055905550505050565b60006123b9836109e3565b905081600660008573ffffffffffffffffffffffffffffffffffffffff1673ffffffffffffffffffffffffffffffffffffffff168152602001908152602001600020600083815260200190815260200160002081905550806007600084815260200190815260200160002081905550505050565b6000604051905090565b600080fd5b600080fd5b60007fffffffff0000000000000000000000000000000000000000000000000000000082169050919050565b61247681612441565b811461248157600080fd5b50565b6000813590506124938161246d565b92915050565b6000602082840312156124af576124ae612437565b5b60006124bd84828501612484565b91505092915050565b60008115159050919050565b6124db816124c6565b82525050565b60006020820190506124f660008301846124d2565b92915050565b600081519050919050565b600082825260208201905092915050565b60005b8381101561253657808201518184015260208101905061251b565b83811115612545576000848401525b50505050565b6000601f19601f8301169050919050565b6000612567826124fc565b6125718185612507565b9350612581818560208601612518565b61258a8161254b565b840191505092915050565b600060208201905081810360008301526125af818461255c565b905092915050565b6000819050919050565b6125ca816125b7565b81146125d557600080fd5b50565b6000813590506125e7816125c1565b92915050565b60006020828403121561260357612602612437565b5b6000612611848285016125d8565b91505092915050565b600073ffffffffffffffffffffffffffffffffffffffff82169050919050565b60006126458261261a565b9050919050565b6126558161263a565b82525050565b6000602082019050612670600083018461264c565b92915050565b61267f8161263a565b811461268a57600080fd5b50565b60008135905061269c81612676565b92915050565b600080604083850312156126b9576126b8612437565b5b60006126c78582860161268d565b92505060206126d8858286016125d8565b9150509250929050565b6126eb816125b7565b82525050565b600060208201905061270660008301846126e2565b92915050565b60008060006060848603121561272557612724612437565b5b60006127338682870161268d565b93505060206127448682870161268d565b9250506040612755868287016125d8565b9150509250925092565b60006020828403121561277557612774612437565b5b60006127838482850161268d565b91505092915050565b612795816124c6565b81146127a057600080fd5b50565b6000813590506127b28161278c565b92915050565b600080604083850312156127cf576127ce612437565b5b60006127dd8582860161268d565b92505060206127ee858286016127a3565b9150509250929050565b600080fd5b600080fd5b7f4e487b7100000000000000000000000000000000000000000000000000000000600052604160045260246000fd5b61283a8261254b565b810181811067ffffffffffffffff8211171561285957612858612802565b5b80604052505050565b600061286c61242d565b90506128788282612831565b919050565b600067ffffffffffffffff82111561289857612897612802565b5b6128a18261254b565b9050602081019050919050565b82818337600083830152505050565b60006128d06128cb8461287d565b612862565b9050828152602081018484840111156128ec576128eb6127fd565b5b6128f78482856128ae565b509392505050565b600082601f830112612914576129136127f8565b5b81356129248482602086016128bd565b91505092915050565b6000806000806080858703121561294757612946612437565b5b60006129558782880161268d565b94505060206129668782880161268d565b9350506040612977878288016125d8565b925050606085013567ffffffffffffffff8111156129985761299761243c565b5b6129a4878288016128ff565b91505092959194509250565b600080604083850312156129c7576129c6612437565b5b60006129d58582860161268d565b92505060206129e68582860161268d565b9150509250929050565b7f4e487b7100000000000000000000000000000000000000000000000000000000600052602260045260246000fd5b60006002820490506001821680612a3757607f821691505b60208210811415612a4b57612a4a6129f0565b5b50919050565b7f4552433732313a20617070726f76656420717565727920666f72206e6f6e657860008201527f697374656e7420746f6b656e0000000000000000000000000000000000000000602082015250565b6000612aad602c83612507565b9150612ab882612a51565b604082019050919050565b60006020820190508181036000830152612adc81612aa0565b9050919050565b7f4552433732313a20617070726f76616c20746f2063757272656e74206f776e6560008201527f7200000000000000000000000000000000000000000000000000000000000000602082015250565b6000612b3f602183612507565b9150612b4a82612ae3565b604082019050919050565b60006020820190508181036000830152612b6e81612b32565b9050919050565b7f4552433732313a20617070726f76652063616c6c6572206973206e6f74206f7760008201527f6e6572206e6f7220617070726f76656420666f7220616c6c0000000000000000602082015250565b6000612bd1603883612507565b9150612bdc82612b75565b604082019050919050565b60006020820190508181036000830152612c0081612bc4565b9050919050565b7f4552433732313a207472616e736665722063616c6c6572206973206e6f74206f60008201527f776e6572206e6f7220617070726f766564000000000000000000000000000000602082015250565b6000612c63603183612507565b9150612c6e82612c07565b604082019050919050565b60006020820190508181036000830152612c9281612c56565b9050919050565b7f455243373231456e756d657261626c653a206f776e657220696e646578206f7560008201527f74206f6620626f756e6473000000000000000000000000000000000000000000602082015250565b6000612cf5602b83612507565b9150612d0082612c99565b604082019050919050565b60006020820190508181036000830152612d2481612ce8565b9050919050565b7f4552433732314275726e61626c653a2063616c6c6572206973206e6f74206f7760008201527f6e6572206e6f7220617070726f76656400000000000000000000000000000000602082015250565b6000612d87603083612507565b9150612d9282612d2b565b604082019050919050565b60006020820190508181036000830152612db681612d7a565b9050919050565b7f455243373231456e756d657261626c653a20676c6f62616c20696e646578206f60008201527f7574206f6620626f756e64730000000000000000000000000000000000000000602082015250565b6000612e19602c83612507565b9150612e2482612dbd565b604082019050919050565b60006020820190508181036000830152612e4881612e0c565b9050919050565b7f4e487b7100000000000000000000000000000000000000000000000000000000600052603260045260246000fd5b7f4552433732313a206f776e657220717565727920666f72206e6f6e657869737460008201527f656e7420746f6b656e0000000000000000000000000000000000000000000000602082015250565b6000612eda602983612507565b9150612ee582612e7e565b604082019050919050565b60006020820190508181036000830152612f0981612ecd565b9050919050565b7f4552433732313a2062616c616e636520717565727920666f7220746865207a6560008201527f726f206164647265737300000000000000000000000000000000000000000000602082015250565b6000612f6c602a83612507565b9150612f7782612f10565b604082019050919050565b60006020820190508181036000830152612f9b81612f5f565b9050919050565b7f4f776e61626c653a2063616c6c6572206973206e6f7420746865206f776e6572600082015250565b6000612fd8602083612507565b9150612fe382612fa2565b602082019050919050565b6000602082019050818103600083015261300781612fcb565b9050919050565b7f4552433732314d657461646174613a2055524920717565727920666f72206e6f60008201527f6e6578697374656e7420746f6b656e0000000000000000000000000000000000602082015250565b600061306a602f83612507565b91506130758261300e565b604082019050919050565b600060208201905081810360008301526130998161305d565b9050919050565b600081905092915050565b60006130b6826124fc565b6130c081856130a0565b93506130d0818560208601612518565b80840191505092915050565b60006130e882856130ab565b91506130f482846130ab565b91508190509392505050565b7f4f776e61626c653a206e6577206f776e657220697320746865207a65726f206160008201527f6464726573730000000000000000000000000000000000000000000000000000602082015250565b600061315c602683612507565b915061316782613100565b604082019050919050565b6000602082019050818103600083015261318b8161314f565b9050919050565b7f4552433732313a206f70657261746f7220717565727920666f72206e6f6e657860008201527f697374656e7420746f6b656e0000000000000000000000000000000000000000602082015250565b60006131ee602c83612507565b91506131f982613192565b604082019050919050565b6000602082019050818103600083015261321d816131e1565b9050919050565b7f4552433732313a207472616e73666572206f6620746f6b656e2074686174206960008201527f73206e6f74206f776e0000000000000000000000000000000000000000000000602082015250565b6000613280602983612507565b915061328b82613224565b604082019050919050565b600060208201905081810360008301526132af81613273565b9050919050565b7f4552433732313a207472616e7366657220746f20746865207a65726f2061646460008201527f7265737300000000000000000000000000000000000000000000000000000000602082015250565b6000613312602483612507565b915061331d826132b6565b604082019050919050565b6000602082019050818103600083015261334181613305565b9050919050565b7f4e487b7100000000000000000000000000000000000000000000000000000000600052601160045260246000fd5b6000613382826125b7565b915061338d836125b7565b9250828210156133a05761339f613348565b5b828203905092915050565b60006133b6826125b7565b91506133c1836125b7565b9250827fffffffffffffffffffffffffffffffffffffffffffffffffffffffffffffffff038211156133f6576133f5613348565b5b828201905092915050565b7f5061757361626c653a206e6f7420706175736564000000000000000000000000600082015250565b6000613437601483612507565b915061344282613401565b602082019050919050565b600060208201905081810360008301526134668161342a565b9050919050565b7f5061757361626c653a2070617573656400000000000000000000000000000000600082015250565b60006134a3601083612507565b91506134ae8261346d565b602082019050919050565b600060208201905081810360008301526134d281613496565b9050919050565b7f4552433732313a20617070726f766520746f2063616c6c657200000000000000600082015250565b600061350f601983612507565b915061351a826134d9565b602082019050919050565b6000602082019050818103600083015261353e81613502565b9050919050565b7f4552433732313a207472616e7366657220746f206e6f6e20455243373231526560008201527f63656976657220696d706c656d656e7465720000000000000000000000000000602082015250565b60006135a1603283612507565b91506135ac82613545565b604082019050919050565b600060208201905081810360008301526135d081613594565b9050919050565b60006135e2826125b7565b91507fffffffffffffffffffffffffffffffffffffffffffffffffffffffffffffffff82141561361557613614613348565b5b600182019050919050565b7f4e487b7100000000000000000000000000000000000000000000000000000000600052601260045260246000fd5b600061365a826125b7565b9150613665836125b7565b92508261367557613674613620565b5b828204905092915050565b600061368b826125b7565b9150613696836125b7565b9250826136a6576136a5613620565b5b828206905092915050565b600081519050919050565b600082825260208201905092915050565b60006136d8826136b1565b6136e281856136bc565b93506136f2818560208601612518565b6136fb8161254b565b840191505092915050565b600060808201905061371b600083018761264c565b613728602083018661264c565b61373560408301856126e2565b818103606083015261374781846136cd565b905095945050505050565b6000815190506137618161246d565b92915050565b60006020828403121561377d5761377c612437565b5b600061378b84828501613752565b91505092915050565b7f4552433732313a206d696e7420746f20746865207a65726f2061646472657373600082015250565b60006137ca602083612507565b91506137d582613794565b602082019050919050565b600060208201905081810360008301526137f9816137bd565b9050919050565b7f4552433732313a20746f6b656e20616c7265616479206d696e74656400000000600082015250565b6000613836601c83612507565b915061384182613800565b602082019050919050565b6000602082019050818103600083015261386581613829565b9050919050565b7f4e487b7100000000000000000000000000000000000000000000000000000000600052603160045260246000fdfea2646970667358221220fa84bc5a56dd71e1c1d1052261ad1544372f5e561b4a7f9a5129f4dc34cd7be064736f6c634300080b0033",
  "immutableReferences": {},
  "source": "// SPDX-License-Identifier: MIT\r\npragma solidity ^0.8.11;\r\n\r\nimport \"@openzeppelin/contracts/token/ERC721/ERC721.sol\";\r\nimport \"@openzeppelin/contracts/token/ERC721/extensions/ERC721Enumerable.sol\";\r\nimport \"@openzeppelin/contracts/security/Pausable.sol\";\r\nimport \"@openzeppelin/contracts/access/Ownable.sol\";\r\nimport \"@openzeppelin/contracts/token/ERC721/extensions/ERC721Burnable.sol\";\r\nimport \"@openzeppelin/contracts/utils/Counters.sol\";\r\n\r\ncontract COLINERC721 is ERC721, ERC721Enumerable, Pausable, Ownable, ERC721Burnable {\r\n    using Counters for Counters.Counter;\r\n\r\n    Counters.Counter private _tokenIdCounter;\r\n\r\n    constructor() ERC721(\"COLIN\", \"COL\") {}\r\n\r\n    function pause() public {\r\n        _pause();\r\n    }\r\n\r\n    function unpause() public {\r\n        _unpause();\r\n    }\r\n\r\n    function safeMint(address to) public {\r\n        uint256 tokenId = _tokenIdCounter.current();\r\n        _tokenIdCounter.increment();\r\n        _safeMint(to, tokenId);\r\n    }\r\n\r\n    function _beforeTokenTransfer(\r\n        address from,\r\n        address to,\r\n        uint256 tokenId\r\n    ) internal override(ERC721, ERC721Enumerable) whenNotPaused {\r\n        super._beforeTokenTransfer(from, to, tokenId);\r\n    }\r\n\r\n    // The following functions are overrides required by Solidity.\r\n\r\n    function supportsInterface(bytes4 interfaceId)\r\n        public\r\n        view\r\n        override(ERC721, ERC721Enumerable)\r\n        returns (bool)\r\n    {\r\n        return super.supportsInterface(interfaceId);\r\n    }\r\n\r\n    string d = \"Hello\";\r\n\r\n    function getHello() public view returns(string memory) {\r\n        return  d;\r\n    }\r\n}",
  "sourcePath": "F:\\coding\\learning\\youtube-projects\\solidity\\truffle unbox\\test2\\pundixcolin\\contracts\\ColinERC721.sol",
  "compiler": {
    "name": "solc",
    "version": "0.8.11+commit.d7f03943.Emscripten.clang"
  },
  "schemaVersion": "3.4.4",
  "updatedAt": "2022-02-08T16:31:16.980Z",
  "devdoc": {
    "kind": "dev",
    "methods": {
      "approve(address,uint256)": {
        "details": "See {IERC721-approve}."
      },
      "balanceOf(address)": {
        "details": "See {IERC721-balanceOf}."
      },
      "burn(uint256)": {
        "details": "Burns `tokenId`. See {ERC721-_burn}. Requirements: - The caller must own `tokenId` or be an approved operator."
      },
      "getApproved(uint256)": {
        "details": "See {IERC721-getApproved}."
      },
      "isApprovedForAll(address,address)": {
        "details": "See {IERC721-isApprovedForAll}."
      },
      "name()": {
        "details": "See {IERC721Metadata-name}."
      },
      "owner()": {
        "details": "Returns the address of the current owner."
      },
      "ownerOf(uint256)": {
        "details": "See {IERC721-ownerOf}."
      },
      "paused()": {
        "details": "Returns true if the contract is paused, and false otherwise."
      },
      "renounceOwnership()": {
        "details": "Leaves the contract without owner. It will not be possible to call `onlyOwner` functions anymore. Can only be called by the current owner. NOTE: Renouncing ownership will leave the contract without an owner, thereby removing any functionality that is only available to the owner."
      },
      "safeTransferFrom(address,address,uint256)": {
        "details": "See {IERC721-safeTransferFrom}."
      },
      "safeTransferFrom(address,address,uint256,bytes)": {
        "details": "See {IERC721-safeTransferFrom}."
      },
      "setApprovalForAll(address,bool)": {
        "details": "See {IERC721-setApprovalForAll}."
      },
      "symbol()": {
        "details": "See {IERC721Metadata-symbol}."
      },
      "tokenByIndex(uint256)": {
        "details": "See {IERC721Enumerable-tokenByIndex}."
      },
      "tokenOfOwnerByIndex(address,uint256)": {
        "details": "See {IERC721Enumerable-tokenOfOwnerByIndex}."
      },
      "tokenURI(uint256)": {
        "details": "See {IERC721Metadata-tokenURI}."
      },
      "totalSupply()": {
        "details": "See {IERC721Enumerable-totalSupply}."
      },
      "transferFrom(address,address,uint256)": {
        "details": "See {IERC721-transferFrom}."
      },
      "transferOwnership(address)": {
        "details": "Transfers ownership of the contract to a new account (`newOwner`). Can only be called by the current owner."
      }
    },
    "version": 1
  },
  "userdoc": {
    "kind": "user",
    "methods": {},
    "version": 1
  }
}