{
  "contractName": "COLINERC20",
  "abi": [
    {
      "inputs": [],
      "stateMutability": "nonpayable",
      "type": "constructor"
    },
    {
      "anonymous": false,
      "inputs": [
        {
          "indexed": true,
          "internalType": "address",
          "name": "owner",
          "type": "address"
        },
        {
          "indexed": true,
          "internalType": "address",
          "name": "spender",
          "type": "address"
        },
        {
          "indexed": false,
          "internalType": "uint256",
          "name": "value",
          "type": "uint256"
        }
      ],
      "name": "Approval",
      "type": "event"
    },
    {
      "anonymous": false,
      "inputs": [
        {
          "indexed": true,
          "internalType": "address",
          "name": "from",
          "type": "address"
        },
        {
          "indexed": true,
          "internalType": "address",
          "name": "to",
          "type": "address"
        },
        {
          "indexed": false,
          "internalType": "uint256",
          "name": "value",
          "type": "uint256"
        }
      ],
      "name": "Transfer",
      "type": "event"
    },
    {
      "inputs": [],
      "name": "_totalSupply",
      "outputs": [
        {
          "internalType": "uint256",
          "name": "",
          "type": "uint256"
        }
      ],
      "stateMutability": "view",
      "type": "function",
      "constant": true
    },
    {
      "inputs": [
        {
          "internalType": "address",
          "name": "owner",
          "type": "address"
        },
        {
          "internalType": "address",
          "name": "spender",
          "type": "address"
        }
      ],
      "name": "allowance",
      "outputs": [
        {
          "internalType": "uint256",
          "name": "",
          "type": "uint256"
        }
      ],
      "stateMutability": "view",
      "type": "function",
      "constant": true
    },
    {
      "inputs": [
        {
          "internalType": "address",
          "name": "spender",
          "type": "address"
        },
        {
          "internalType": "uint256",
          "name": "amount",
          "type": "uint256"
        }
      ],
      "name": "approve",
      "outputs": [
        {
          "internalType": "bool",
          "name": "",
          "type": "bool"
        }
      ],
      "stateMutability": "nonpayable",
      "type": "function"
    },
    {
      "inputs": [
        {
          "internalType": "address",
          "name": "account",
          "type": "address"
        }
      ],
      "name": "balanceOf",
      "outputs": [
        {
          "internalType": "uint256",
          "name": "",
          "type": "uint256"
        }
      ],
      "stateMutability": "view",
      "type": "function",
      "constant": true
    },
    {
      "inputs": [],
      "name": "decimals",
      "outputs": [
        {
          "internalType": "uint8",
          "name": "",
          "type": "uint8"
        }
      ],
      "stateMutability": "view",
      "type": "function",
      "constant": true
    },
    {
      "inputs": [
        {
          "internalType": "address",
          "name": "spender",
          "type": "address"
        },
        {
          "internalType": "uint256",
          "name": "subtractedValue",
          "type": "uint256"
        }
      ],
      "name": "decreaseAllowance",
      "outputs": [
        {
          "internalType": "bool",
          "name": "",
          "type": "bool"
        }
      ],
      "stateMutability": "nonpayable",
      "type": "function"
    },
    {
      "inputs": [
        {
          "internalType": "address",
          "name": "spender",
          "type": "address"
        },
        {
          "internalType": "uint256",
          "name": "addedValue",
          "type": "uint256"
        }
      ],
      "name": "increaseAllowance",
      "outputs": [
        {
          "internalType": "bool",
          "name": "",
          "type": "bool"
        }
      ],
      "stateMutability": "nonpayable",
      "type": "function"
    },
    {
      "inputs": [],
      "name": "name",
      "outputs": [
        {
          "internalType": "string",
          "name": "",
          "type": "string"
        }
      ],
      "stateMutability": "view",
      "type": "function",
      "constant": true
    },
    {
      "inputs": [],
      "name": "symbol",
      "outputs": [
        {
          "internalType": "string",
          "name": "",
          "type": "string"
        }
      ],
      "stateMutability": "view",
      "type": "function",
      "constant": true
    },
    {
      "inputs": [],
      "name": "totalSupply",
      "outputs": [
        {
          "internalType": "uint256",
          "name": "",
          "type": "uint256"
        }
      ],
      "stateMutability": "view",
      "type": "function",
      "constant": true
    },
    {
      "inputs": [
        {
          "internalType": "address",
          "name": "recipient",
          "type": "address"
        },
        {
          "internalType": "uint256",
          "name": "amount",
          "type": "uint256"
        }
      ],
      "name": "transfer",
      "outputs": [
        {
          "internalType": "bool",
          "name": "",
          "type": "bool"
        }
      ],
      "stateMutability": "nonpayable",
      "type": "function"
    },
    {
      "inputs": [
        {
          "internalType": "address",
          "name": "sender",
          "type": "address"
        },
        {
          "internalType": "address",
          "name": "recipient",
          "type": "address"
        },
        {
          "internalType": "uint256",
          "name": "amount",
          "type": "uint256"
        }
      ],
      "name": "transferFrom",
      "outputs": [
        {
          "internalType": "bool",
          "name": "",
          "type": "bool"
        }
      ],
      "stateMutability": "nonpayable",
      "type": "function"
    },
    {
      "inputs": [
        {
          "internalType": "address",
          "name": "to",
          "type": "address"
        },
        {
          "internalType": "uint256",
          "name": "amount",
          "type": "uint256"
        }
      ],
      "name": "mint",
      "outputs": [],
      "stateMutability": "nonpayable",
      "type": "function"
    }
  ],
  "bytecode": "0x60806040523480156200001157600080fd5b506040518060400160405280600581526020017f434f4c494e0000000000000000000000000000000000000000000000000000008152506040518060400160405280600381526020017f434f4c0000000000000000000000000000000000000000000000000000000000815250816003908051906020019062000096929190620002bd565b508060049080519060200190620000af929190620002bd565b505050620000f433620000c76200013160201b60201c565b60ff16600a620000d89190620004fa565b620186a0620000e891906200054b565b6200013a60201b60201c565b620001046200013160201b60201c565b60ff16600a620001159190620004fa565b620f42406200012591906200054b565b6005819055506200071f565b60006012905090565b600073ffffffffffffffffffffffffffffffffffffffff168273ffffffffffffffffffffffffffffffffffffffff161415620001ad576040517f08c379a0000000000000000000000000000000000000000000000000000000008152600401620001a4906200060d565b60405180910390fd5b620001c160008383620002b360201b60201c565b8060026000828254620001d591906200062f565b92505081905550806000808473ffffffffffffffffffffffffffffffffffffffff1673ffffffffffffffffffffffffffffffffffffffff16815260200190815260200160002060008282546200022c91906200062f565b925050819055508173ffffffffffffffffffffffffffffffffffffffff16600073ffffffffffffffffffffffffffffffffffffffff167fddf252ad1be2c89b69c2b068fc378daa952ba7f163c4a11628f55a4df523b3ef836040516200029391906200069d565b60405180910390a3620002af60008383620002b860201b60201c565b5050565b505050565b505050565b828054620002cb90620006e9565b90600052602060002090601f016020900481019282620002ef57600085556200033b565b82601f106200030a57805160ff19168380011785556200033b565b828001600101855582156200033b579182015b828111156200033a5782518255916020019190600101906200031d565b5b5090506200034a91906200034e565b5090565b5b80821115620003695760008160009055506001016200034f565b5090565b7f4e487b7100000000000000000000000000000000000000000000000000000000600052601160045260246000fd5b60008160011c9050919050565b6000808291508390505b6001851115620003fb57808604811115620003d357620003d26200036d565b5b6001851615620003e35780820291505b8081029050620003f3856200039c565b9450620003b3565b94509492505050565b600082620004165760019050620004e9565b81620004265760009050620004e9565b81600181146200043f57600281146200044a5762000480565b6001915050620004e9565b60ff8411156200045f576200045e6200036d565b5b8360020a9150848211156200047957620004786200036d565b5b50620004e9565b5060208310610133831016604e8410600b8410161715620004ba5782820a905083811115620004b457620004b36200036d565b5b620004e9565b620004c98484846001620003a9565b92509050818404811115620004e357620004e26200036d565b5b81810290505b9392505050565b6000819050919050565b60006200050782620004f0565b91506200051483620004f0565b9250620005437fffffffffffffffffffffffffffffffffffffffffffffffffffffffffffffffff848462000404565b905092915050565b60006200055882620004f0565b91506200056583620004f0565b9250817fffffffffffffffffffffffffffffffffffffffffffffffffffffffffffffffff0483118215151615620005a157620005a06200036d565b5b828202905092915050565b600082825260208201905092915050565b7f45524332303a206d696e7420746f20746865207a65726f206164647265737300600082015250565b6000620005f5601f83620005ac565b91506200060282620005bd565b602082019050919050565b600060208201905081810360008301526200062881620005e6565b9050919050565b60006200063c82620004f0565b91506200064983620004f0565b9250827fffffffffffffffffffffffffffffffffffffffffffffffffffffffffffffffff038211156200068157620006806200036d565b5b828201905092915050565b6200069781620004f0565b82525050565b6000602082019050620006b460008301846200068c565b92915050565b7f4e487b7100000000000000000000000000000000000000000000000000000000600052602260045260246000fd5b600060028204905060018216806200070257607f821691505b60208210811415620007195762000718620006ba565b5b50919050565b6117f5806200072f6000396000f3fe608060405234801561001057600080fd5b50600436106100cf5760003560e01c80633eaaf86b1161008c57806395d89b411161006657806395d89b4114610228578063a457c2d714610246578063a9059cbb14610276578063dd62ed3e146102a6576100cf565b80633eaaf86b146101be57806340c10f19146101dc57806370a08231146101f8576100cf565b806306fdde03146100d4578063095ea7b3146100f257806318160ddd1461012257806323b872dd14610140578063313ce56714610170578063395093511461018e575b600080fd5b6100dc6102d6565b6040516100e99190610e45565b60405180910390f35b61010c60048036038101906101079190610f00565b610368565b6040516101199190610f5b565b60405180910390f35b61012a610386565b6040516101379190610f85565b60405180910390f35b61015a60048036038101906101559190610fa0565b610390565b6040516101679190610f5b565b60405180910390f35b610178610488565b604051610185919061100f565b60405180910390f35b6101a860048036038101906101a39190610f00565b610491565b6040516101b59190610f5b565b60405180910390f35b6101c661053d565b6040516101d39190610f85565b60405180910390f35b6101f660048036038101906101f19190610f00565b610543565b005b610212600480360381019061020d919061102a565b610584565b60405161021f9190610f85565b60405180910390f35b6102306105cc565b60405161023d9190610e45565b60405180910390f35b610260600480360381019061025b9190610f00565b61065e565b60405161026d9190610f5b565b60405180910390f35b610290600480360381019061028b9190610f00565b610749565b60405161029d9190610f5b565b60405180910390f35b6102c060048036038101906102bb9190611057565b610767565b6040516102cd9190610f85565b60405180910390f35b6060600380546102e5906110c6565b80601f0160208091040260200160405190810160405280929190818152602001828054610311906110c6565b801561035e5780601f106103335761010080835404028352916020019161035e565b820191906000526020600020905b81548152906001019060200180831161034157829003601f168201915b5050505050905090565b600061037c6103756107ee565b84846107f6565b6001905092915050565b6000600254905090565b600061039d8484846109c1565b6000600160008673ffffffffffffffffffffffffffffffffffffffff1673ffffffffffffffffffffffffffffffffffffffff16815260200190815260200160002060006103e86107ee565b73ffffffffffffffffffffffffffffffffffffffff1673ffffffffffffffffffffffffffffffffffffffff16815260200190815260200160002054905082811015610468576040517f08c379a000000000000000000000000000000000000000000000000000000000815260040161045f9061116a565b60405180910390fd5b61047c856104746107ee565b8584036107f6565b60019150509392505050565b60006012905090565b600061053361049e6107ee565b8484600160006104ac6107ee565b73ffffffffffffffffffffffffffffffffffffffff1673ffffffffffffffffffffffffffffffffffffffff16815260200190815260200160002060008873ffffffffffffffffffffffffffffffffffffffff1673ffffffffffffffffffffffffffffffffffffffff1681526020019081526020016000205461052e91906111b9565b6107f6565b6001905092915050565b60055481565b61054b610488565b60ff16600a61055a9190611342565b620f4240610568919061138d565b600554111561057657600080fd5b6105808282610c42565b5050565b60008060008373ffffffffffffffffffffffffffffffffffffffff1673ffffffffffffffffffffffffffffffffffffffff168152602001908152602001600020549050919050565b6060600480546105db906110c6565b80601f0160208091040260200160405190810160405280929190818152602001828054610607906110c6565b80156106545780601f1061062957610100808354040283529160200191610654565b820191906000526020600020905b81548152906001019060200180831161063757829003601f168201915b5050505050905090565b6000806001600061066d6107ee565b73ffffffffffffffffffffffffffffffffffffffff1673ffffffffffffffffffffffffffffffffffffffff16815260200190815260200160002060008573ffffffffffffffffffffffffffffffffffffffff1673ffffffffffffffffffffffffffffffffffffffff1681526020019081526020016000205490508281101561072a576040517f08c379a000000000000000000000000000000000000000000000000000000000815260040161072190611459565b60405180910390fd5b61073e6107356107ee565b858584036107f6565b600191505092915050565b600061075d6107566107ee565b84846109c1565b6001905092915050565b6000600160008473ffffffffffffffffffffffffffffffffffffffff1673ffffffffffffffffffffffffffffffffffffffff16815260200190815260200160002060008373ffffffffffffffffffffffffffffffffffffffff1673ffffffffffffffffffffffffffffffffffffffff16815260200190815260200160002054905092915050565b600033905090565b600073ffffffffffffffffffffffffffffffffffffffff168373ffffffffffffffffffffffffffffffffffffffff161415610866576040517f08c379a000000000000000000000000000000000000000000000000000000000815260040161085d906114eb565b60405180910390fd5b600073ffffffffffffffffffffffffffffffffffffffff168273ffffffffffffffffffffffffffffffffffffffff1614156108d6576040517f08c379a00000000000000000000000000000000000000000000000000000000081526004016108cd9061157d565b60405180910390fd5b80600160008573ffffffffffffffffffffffffffffffffffffffff1673ffffffffffffffffffffffffffffffffffffffff16815260200190815260200160002060008473ffffffffffffffffffffffffffffffffffffffff1673ffffffffffffffffffffffffffffffffffffffff168152602001908152602001600020819055508173ffffffffffffffffffffffffffffffffffffffff168373ffffffffffffffffffffffffffffffffffffffff167f8c5be1e5ebec7d5bd14f71427d1e84f3dd0314c0f7b2291e5b200ac8c7c3b925836040516109b49190610f85565b60405180910390a3505050565b600073ffffffffffffffffffffffffffffffffffffffff168373ffffffffffffffffffffffffffffffffffffffff161415610a31576040517f08c379a0000000000000000000000000000000000000000000000000000000008152600401610a289061160f565b60405180910390fd5b600073ffffffffffffffffffffffffffffffffffffffff168273ffffffffffffffffffffffffffffffffffffffff161415610aa1576040517f08c379a0000000000000000000000000000000000000000000000000000000008152600401610a98906116a1565b60405180910390fd5b610aac838383610da2565b60008060008573ffffffffffffffffffffffffffffffffffffffff1673ffffffffffffffffffffffffffffffffffffffff16815260200190815260200160002054905081811015610b32576040517f08c379a0000000000000000000000000000000000000000000000000000000008152600401610b2990611733565b60405180910390fd5b8181036000808673ffffffffffffffffffffffffffffffffffffffff1673ffffffffffffffffffffffffffffffffffffffff16815260200190815260200160002081905550816000808573ffffffffffffffffffffffffffffffffffffffff1673ffffffffffffffffffffffffffffffffffffffff1681526020019081526020016000206000828254610bc591906111b9565b925050819055508273ffffffffffffffffffffffffffffffffffffffff168473ffffffffffffffffffffffffffffffffffffffff167fddf252ad1be2c89b69c2b068fc378daa952ba7f163c4a11628f55a4df523b3ef84604051610c299190610f85565b60405180910390a3610c3c848484610da7565b50505050565b600073ffffffffffffffffffffffffffffffffffffffff168273ffffffffffffffffffffffffffffffffffffffff161415610cb2576040517f08c379a0000000000000000000000000000000000000000000000000000000008152600401610ca99061179f565b60405180910390fd5b610cbe60008383610da2565b8060026000828254610cd091906111b9565b92505081905550806000808473ffffffffffffffffffffffffffffffffffffffff1673ffffffffffffffffffffffffffffffffffffffff1681526020019081526020016000206000828254610d2591906111b9565b925050819055508173ffffffffffffffffffffffffffffffffffffffff16600073ffffffffffffffffffffffffffffffffffffffff167fddf252ad1be2c89b69c2b068fc378daa952ba7f163c4a11628f55a4df523b3ef83604051610d8a9190610f85565b60405180910390a3610d9e60008383610da7565b5050565b505050565b505050565b600081519050919050565b600082825260208201905092915050565b60005b83811015610de6578082015181840152602081019050610dcb565b83811115610df5576000848401525b50505050565b6000601f19601f8301169050919050565b6000610e1782610dac565b610e218185610db7565b9350610e31818560208601610dc8565b610e3a81610dfb565b840191505092915050565b60006020820190508181036000830152610e5f8184610e0c565b905092915050565b600080fd5b600073ffffffffffffffffffffffffffffffffffffffff82169050919050565b6000610e9782610e6c565b9050919050565b610ea781610e8c565b8114610eb257600080fd5b50565b600081359050610ec481610e9e565b92915050565b6000819050919050565b610edd81610eca565b8114610ee857600080fd5b50565b600081359050610efa81610ed4565b92915050565b60008060408385031215610f1757610f16610e67565b5b6000610f2585828601610eb5565b9250506020610f3685828601610eeb565b9150509250929050565b60008115159050919050565b610f5581610f40565b82525050565b6000602082019050610f706000830184610f4c565b92915050565b610f7f81610eca565b82525050565b6000602082019050610f9a6000830184610f76565b92915050565b600080600060608486031215610fb957610fb8610e67565b5b6000610fc786828701610eb5565b9350506020610fd886828701610eb5565b9250506040610fe986828701610eeb565b9150509250925092565b600060ff82169050919050565b61100981610ff3565b82525050565b60006020820190506110246000830184611000565b92915050565b6000602082840312156110405761103f610e67565b5b600061104e84828501610eb5565b91505092915050565b6000806040838503121561106e5761106d610e67565b5b600061107c85828601610eb5565b925050602061108d85828601610eb5565b9150509250929050565b7f4e487b7100000000000000000000000000000000000000000000000000000000600052602260045260246000fd5b600060028204905060018216806110de57607f821691505b602082108114156110f2576110f1611097565b5b50919050565b7f45524332303a207472616e7366657220616d6f756e742065786365656473206160008201527f6c6c6f77616e6365000000000000000000000000000000000000000000000000602082015250565b6000611154602883610db7565b915061115f826110f8565b604082019050919050565b6000602082019050818103600083015261118381611147565b9050919050565b7f4e487b7100000000000000000000000000000000000000000000000000000000600052601160045260246000fd5b60006111c482610eca565b91506111cf83610eca565b9250827fffffffffffffffffffffffffffffffffffffffffffffffffffffffffffffffff038211156112045761120361118a565b5b828201905092915050565b60008160011c9050919050565b6000808291508390505b6001851115611266578086048111156112425761124161118a565b5b60018516156112515780820291505b808102905061125f8561120f565b9450611226565b94509492505050565b60008261127f576001905061133b565b8161128d576000905061133b565b81600181146112a357600281146112ad576112dc565b600191505061133b565b60ff8411156112bf576112be61118a565b5b8360020a9150848211156112d6576112d561118a565b5b5061133b565b5060208310610133831016604e8410600b84101617156113115782820a90508381111561130c5761130b61118a565b5b61133b565b61131e848484600161121c565b925090508184048111156113355761133461118a565b5b81810290505b9392505050565b600061134d82610eca565b915061135883610eca565b92506113857fffffffffffffffffffffffffffffffffffffffffffffffffffffffffffffffff848461126f565b905092915050565b600061139882610eca565b91506113a383610eca565b9250817fffffffffffffffffffffffffffffffffffffffffffffffffffffffffffffffff04831182151516156113dc576113db61118a565b5b828202905092915050565b7f45524332303a2064656372656173656420616c6c6f77616e63652062656c6f7760008201527f207a65726f000000000000000000000000000000000000000000000000000000602082015250565b6000611443602583610db7565b915061144e826113e7565b604082019050919050565b6000602082019050818103600083015261147281611436565b9050919050565b7f45524332303a20617070726f76652066726f6d20746865207a65726f2061646460008201527f7265737300000000000000000000000000000000000000000000000000000000602082015250565b60006114d5602483610db7565b91506114e082611479565b604082019050919050565b60006020820190508181036000830152611504816114c8565b9050919050565b7f45524332303a20617070726f766520746f20746865207a65726f20616464726560008201527f7373000000000000000000000000000000000000000000000000000000000000602082015250565b6000611567602283610db7565b91506115728261150b565b604082019050919050565b600060208201905081810360008301526115968161155a565b9050919050565b7f45524332303a207472616e736665722066726f6d20746865207a65726f20616460008201527f6472657373000000000000000000000000000000000000000000000000000000602082015250565b60006115f9602583610db7565b91506116048261159d565b604082019050919050565b60006020820190508181036000830152611628816115ec565b9050919050565b7f45524332303a207472616e7366657220746f20746865207a65726f206164647260008201527f6573730000000000000000000000000000000000000000000000000000000000602082015250565b600061168b602383610db7565b91506116968261162f565b604082019050919050565b600060208201905081810360008301526116ba8161167e565b9050919050565b7f45524332303a207472616e7366657220616d6f756e742065786365656473206260008201527f616c616e63650000000000000000000000000000000000000000000000000000602082015250565b600061171d602683610db7565b9150611728826116c1565b604082019050919050565b6000602082019050818103600083015261174c81611710565b9050919050565b7f45524332303a206d696e7420746f20746865207a65726f206164647265737300600082015250565b6000611789601f83610db7565b915061179482611753565b602082019050919050565b600060208201905081810360008301526117b88161177c565b905091905056fea264697066735822122032b806c8fe111377011bd0a59b1007100faeb8ca7f5c45344428d8df7a0e549964736f6c634300080b0033",
  "immutableReferences": {},
  "source": "// SPDX-License-Identifier: MIT\r\npragma solidity ^0.8.11;\r\n\r\nimport \"@openzeppelin/contracts/token/ERC20/ERC20.sol\";\r\nimport \"@openzeppelin/contracts/token/ERC20/extensions/ERC20Burnable.sol\";\r\nimport \"@openzeppelin/contracts/access/Ownable.sol\";\r\n\r\ncontract COLINERC20 is ERC20 {\r\n    uint public _totalSupply;\r\n\r\n    constructor() ERC20(\"COLIN\", \"COL\") {\r\n        _mint(msg.sender, 100000 * (10 ** uint256(decimals())));\r\n        _totalSupply = 1000000 * (10 ** uint256(decimals()));\r\n    }\r\n\r\n    function mint(address to, uint256 amount) public {\r\n        require(_totalSupply <= 1000000 * (10 ** uint256(decimals())));\r\n        _mint(to, amount);\r\n    }\r\n}",
  "sourcePath": "F:\\coding\\learning\\youtube-projects\\solidity\\truffle unbox\\test2\\pundixcolin\\contracts\\ColinERC20.sol",
  "compiler": {
    "name": "solc",
    "version": "0.8.11+commit.d7f03943.Emscripten.clang"
  },
  "schemaVersion": "3.4.4",
  "updatedAt": "2022-02-10T05:26:25.581Z",
  "networkType": "ethereum",
  "devdoc": {
    "kind": "dev",
    "methods": {
      "allowance(address,address)": {
        "details": "See {IERC20-allowance}."
      },
      "approve(address,uint256)": {
        "details": "See {IERC20-approve}. Requirements: - `spender` cannot be the zero address."
      },
      "balanceOf(address)": {
        "details": "See {IERC20-balanceOf}."
      },
      "decimals()": {
        "details": "Returns the number of decimals used to get its user representation. For example, if `decimals` equals `2`, a balance of `505` tokens should be displayed to a user as `5.05` (`505 / 10 ** 2`). Tokens usually opt for a value of 18, imitating the relationship between Ether and Wei. This is the value {ERC20} uses, unless this function is overridden; NOTE: This information is only used for _display_ purposes: it in no way affects any of the arithmetic of the contract, including {IERC20-balanceOf} and {IERC20-transfer}."
      },
      "decreaseAllowance(address,uint256)": {
        "details": "Atomically decreases the allowance granted to `spender` by the caller. This is an alternative to {approve} that can be used as a mitigation for problems described in {IERC20-approve}. Emits an {Approval} event indicating the updated allowance. Requirements: - `spender` cannot be the zero address. - `spender` must have allowance for the caller of at least `subtractedValue`."
      },
      "increaseAllowance(address,uint256)": {
        "details": "Atomically increases the allowance granted to `spender` by the caller. This is an alternative to {approve} that can be used as a mitigation for problems described in {IERC20-approve}. Emits an {Approval} event indicating the updated allowance. Requirements: - `spender` cannot be the zero address."
      },
      "name()": {
        "details": "Returns the name of the token."
      },
      "symbol()": {
        "details": "Returns the symbol of the token, usually a shorter version of the name."
      },
      "totalSupply()": {
        "details": "See {IERC20-totalSupply}."
      },
      "transfer(address,uint256)": {
        "details": "See {IERC20-transfer}. Requirements: - `recipient` cannot be the zero address. - the caller must have a balance of at least `amount`."
      },
      "transferFrom(address,address,uint256)": {
        "details": "See {IERC20-transferFrom}. Emits an {Approval} event indicating the updated allowance. This is not required by the EIP. See the note at the beginning of {ERC20}. Requirements: - `sender` and `recipient` cannot be the zero address. - `sender` must have a balance of at least `amount`. - the caller must have allowance for ``sender``'s tokens of at least `amount`."
      }
    },
    "version": 1
  },
  "userdoc": {
    "kind": "user",
    "methods": {},
    "version": 1
  }
}